{
  "contractName": "LibraryLock",
  "abi": [
    {
      "constant": true,
      "inputs": [],
      "name": "initialized",
      "outputs": [
        {
          "name": "",
          "type": "bool"
        }
      ],
      "payable": false,
      "stateMutability": "view",
      "type": "function"
    }
  ],
  "bytecode": "0x608060405260008060006101000a81548160ff021916908315150217905550348015602957600080fd5b50608b806100386000396000f3fe6080604052348015600f57600080fd5b506004361060285760003560e01c8063158ef93e14602d575b600080fd5b6033604d565b604051808215151515815260200191505060405180910390f35b6000809054906101000a900460ff168156fea165627a7a723058204b5234b88463e8e57268662bebf69c512b9ae806dcfebae2b20a8b8884136a8a0029",
  "source": "pragma solidity ^0.5.1;\n\nimport './LibraryLockDataLayout.sol';\n\ncontract LibraryLock is LibraryLockDataLayout {\n    // Ensures no one can manipulate the Logic Contract once it is deployed.\n    // PARITY WALLET HACK PREVENTION\n\n    modifier delegatedOnly() {\n        require(initialized == true, \"The library is locked. No direct 'call' is allowed\");\n        _;\n    }\n    function initialize() internal {\n        initialized = true;\n    }\n}",
  "sourcePath": "/Users/mdcoon/SampleProxy/contracts/LibraryLock.sol",
  "compiler": {
    "name": "solc",
    "version": "0.5.8+commit.23d335f2.Emscripten.clang"
  },
  "schemaVersion": "3.0.11",
  "updatedAt": "2019-07-20T18:58:41.967Z",
  "devdoc": {
    "methods": {}
  },
  "userdoc": {
    "methods": {}
  }
}