{
  "contractName": "Sample",
  "abi": [
    {
      "constant": true,
      "inputs": [],
      "name": "count",
      "outputs": [
        {
          "name": "",
          "type": "uint256"
        }
      ],
      "payable": false,
      "stateMutability": "view",
      "type": "function"
    },
    {
      "constant": true,
      "inputs": [],
      "name": "initialized",
      "outputs": [
        {
          "name": "",
          "type": "bool"
        }
      ],
      "payable": false,
      "stateMutability": "view",
      "type": "function"
    },
    {
      "constant": true,
      "inputs": [
        {
          "name": "",
          "type": "address"
        }
      ],
      "name": "guestBook",
      "outputs": [
        {
          "name": "",
          "type": "bool"
        }
      ],
      "payable": false,
      "stateMutability": "view",
      "type": "function"
    },
    {
      "constant": true,
      "inputs": [],
      "name": "proxiableUUID",
      "outputs": [
        {
          "name": "",
          "type": "bytes32"
        }
      ],
      "payable": false,
      "stateMutability": "pure",
      "type": "function"
    },
    {
      "constant": true,
      "inputs": [],
      "name": "maxGuests",
      "outputs": [
        {
          "name": "",
          "type": "uint256"
        }
      ],
      "payable": false,
      "stateMutability": "view",
      "type": "function"
    },
    {
      "anonymous": false,
      "inputs": [
        {
          "indexed": false,
          "name": "newAddress",
          "type": "address"
        }
      ],
      "name": "NewContractAddress",
      "type": "event"
    },
    {
      "constant": false,
      "inputs": [
        {
          "name": "max",
          "type": "uint256"
        }
      ],
      "name": "postConstructor",
      "outputs": [],
      "payable": false,
      "stateMutability": "nonpayable",
      "type": "function"
    },
    {
      "constant": false,
      "inputs": [],
      "name": "increment",
      "outputs": [],
      "payable": false,
      "stateMutability": "nonpayable",
      "type": "function"
    },
    {
      "constant": false,
      "inputs": [
        {
          "name": "newAddress",
          "type": "address"
        }
      ],
      "name": "updateCode",
      "outputs": [],
      "payable": false,
      "stateMutability": "nonpayable",
      "type": "function"
    },
    {
      "constant": false,
      "inputs": [],
      "name": "visit",
      "outputs": [],
      "payable": false,
      "stateMutability": "nonpayable",
      "type": "function"
    },
    {
      "constant": false,
      "inputs": [],
      "name": "codeAddress",
      "outputs": [
        {
          "name": "cAddr",
          "type": "address"
        }
      ],
      "payable": false,
      "stateMutability": "nonpayable",
      "type": "function"
    }
  ],
  "bytecode": "0x608060405260008060006101000a81548160ff02191690831515021790555034801561002a57600080fd5b506108c48061003a6000396000f3fe608060405234801561001057600080fd5b506004361061009e5760003560e01c806352d1902d1161006657806352d1902d1461018d578063677a3560146101ab57806396d2a856146101f5578063aae3722114610223578063d09de08a146102415761009e565b806306661abd146100a35780630cc4330c146100c1578063158ef93e146100cb5780633fd04452146100ed5780634695195414610149575b600080fd5b6100ab61024b565b6040518082815260200191505060405180910390f35b6100c9610251565b005b6100d36103d6565b604051808215151515815260200191505060405180910390f35b61012f6004803603602081101561010357600080fd5b81019080803573ffffffffffffffffffffffffffffffffffffffff1690602001909291905050506103e8565b604051808215151515815260200191505060405180910390f35b61018b6004803603602081101561015f57600080fd5b81019080803573ffffffffffffffffffffffffffffffffffffffff169060200190929190505050610408565b005b6101956104e2565b6040518082815260200191505060405180910390f35b6101b361050d565b604051808273ffffffffffffffffffffffffffffffffffffffff1673ffffffffffffffffffffffffffffffffffffffff16815260200191505060405180910390f35b6102216004803603602081101561020b57600080fd5b81019080803590602001909291905050506105a1565b005b61022b610645565b6040518082815260200191505060405180910390f35b61024961064b565b005b60015481565b600115156000809054906101000a900460ff161515146102bc576040517f08c379a00000000000000000000000000000000000000000000000000000000081526004018080602001828103825260328152602001806108676032913960400191505060405180910390fd5b600360003373ffffffffffffffffffffffffffffffffffffffff1673ffffffffffffffffffffffffffffffffffffffff16815260200190815260200160002060009054906101000a900460ff161561037c576040517f08c379a000000000000000000000000000000000000000000000000000000000815260040180806020018281038252600c8152602001807f477565737420657869737473000000000000000000000000000000000000000081525060200191505060405180910390fd5b6001600360003373ffffffffffffffffffffffffffffffffffffffff1673ffffffffffffffffffffffffffffffffffffffff16815260200190815260200160002060006101000a81548160ff021916908315150217905550565b6000809054906101000a900460ff1681565b60036020528060005260406000206000915054906101000a900460ff1681565b600115156000809054906101000a900460ff16151514610473576040517f08c379a00000000000000000000000000000000000000000000000000000000081526004018080602001828103825260328152602001806108676032913960400191505060405180910390fd5b61047c816106c8565b7f347df869dd398e5c7c4a228fdfcd621e29beffbb21d815233f9af7114bbea6c381604051808273ffffffffffffffffffffffffffffffffffffffff1673ffffffffffffffffffffffffffffffffffffffff16815260200191505060405180910390a150565b60007fc5f16f0fcc639fa48a6947836d9850f504798523bf8c9a3a87d5876cf622bcf760001b905090565b6000600115156000809054906101000a900460ff1615151461057a576040517f08c379a00000000000000000000000000000000000000000000000000000000081526004018080602001828103825260328152602001806108676032913960400191505060405180910390fd5b7fc5f16f0fcc639fa48a6947836d9850f504798523bf8c9a3a87d5876cf622bcf754905090565b6000809054906101000a900460ff16156105ba57600080fd5b806002819055506105c9610806565b6105d233610822565b60006105dc61050d565b90507f347df869dd398e5c7c4a228fdfcd621e29beffbb21d815233f9af7114bbea6c381604051808273ffffffffffffffffffffffffffffffffffffffff1673ffffffffffffffffffffffffffffffffffffffff16815260200191505060405180910390a15050565b60025481565b600115156000809054906101000a900460ff161515146106b6576040517f08c379a00000000000000000000000000000000000000000000000000000000081526004018080602001828103825260328152602001806108676032913960400191505060405180910390fd5b60018060008282540192505081905550565b8073ffffffffffffffffffffffffffffffffffffffff166352d1902d6040518163ffffffff1660e01b815260040160206040518083038186803b15801561070e57600080fd5b505afa158015610722573d6000803e3d6000fd5b505050506040513d602081101561073857600080fd5b81019080805190602001909291905050507fc5f16f0fcc639fa48a6947836d9850f504798523bf8c9a3a87d5876cf622bcf760001b146107e0576040517f08c379a000000000000000000000000000000000000000000000000000000000815260040180806020018281038252600e8152602001807f4e6f7420636f6d70617469626c6500000000000000000000000000000000000081525060200191505060405180910390fd5b807fc5f16f0fcc639fa48a6947836d9850f504798523bf8c9a3a87d5876cf622bcf75550565b60016000806101000a81548160ff021916908315150217905550565b80600460006101000a81548173ffffffffffffffffffffffffffffffffffffffff021916908373ffffffffffffffffffffffffffffffffffffffff1602179055505056fe546865206c696272617279206973206c6f636b65642e204e6f20646972656374202763616c6c2720697320616c6c6f776564a165627a7a7230582089317824a75d74af3a355d13f17a120e1ae3d71fc978e8c40c35008e7d33d0400029",
  "source": "pragma solidity ^0.5.1;\n\nimport './Proxiable.sol';\nimport './Owned.sol';\nimport './SampleDataLayout.sol';\nimport './LibraryLock.sol';\n\ncontract Sample  is SampleDataLayout, Owned, Proxiable, LibraryLock {\n    function postConstructor(uint256 max) public {\n        require(!initialized);\n        maxGuests = max;\n        initialize();\n        setOwner(msg.sender);\n        address myAddr = codeAddress();\n        emit NewContractAddress(myAddr);\n    }\n\n    function increment() public delegatedOnly {\n        count += 1;\n    }\n\n\n    function updateCode(address newAddress) public  delegatedOnly {\n        updateCodeAddress(newAddress);\n        emit NewContractAddress(newAddress);\n    }\n\n    function visit() public delegatedOnly {\n        require(!guestBook[msg.sender], \"Guest exists\");\n        guestBook[msg.sender] = true;\n    }\n\n    function codeAddress() public delegatedOnly returns (address cAddr) {\n        assembly {\n            cAddr := sload(0xc5f16f0fcc639fa48a6947836d9850f504798523bf8c9a3a87d5876cf622bcf7)\n           \n        }\n    }\n}",
  "sourcePath": "/Users/mdcoon/SampleProxy/contracts/Sample.sol",
  "compiler": {
    "name": "solc",
    "version": "0.5.8+commit.23d335f2.Emscripten.clang"
  },
  "schemaVersion": "3.0.11",
  "updatedAt": "2019-07-21T11:55:46.812Z",
  "devdoc": {
    "methods": {}
  },
  "userdoc": {
    "methods": {}
  }
}