{
  "contractName": "SampleDataLayout",
  "abi": [
    {
      "constant": true,
      "inputs": [],
      "name": "count",
      "outputs": [
        {
          "name": "",
          "type": "uint256"
        }
      ],
      "payable": false,
      "stateMutability": "view",
      "type": "function"
    },
    {
      "constant": true,
      "inputs": [],
      "name": "initialized",
      "outputs": [
        {
          "name": "",
          "type": "bool"
        }
      ],
      "payable": false,
      "stateMutability": "view",
      "type": "function"
    },
    {
      "constant": true,
      "inputs": [
        {
          "name": "",
          "type": "address"
        }
      ],
      "name": "guestBook",
      "outputs": [
        {
          "name": "",
          "type": "bool"
        }
      ],
      "payable": false,
      "stateMutability": "view",
      "type": "function"
    },
    {
      "constant": true,
      "inputs": [],
      "name": "maxGuests",
      "outputs": [
        {
          "name": "",
          "type": "uint256"
        }
      ],
      "payable": false,
      "stateMutability": "view",
      "type": "function"
    },
    {
      "anonymous": false,
      "inputs": [
        {
          "indexed": false,
          "name": "newAddress",
          "type": "address"
        }
      ],
      "name": "NewContractAddress",
      "type": "event"
    }
  ],
  "bytecode": "0x608060405260008060006101000a81548160ff02191690831515021790555034801561002a57600080fd5b506101758061003a6000396000f3fe608060405234801561001057600080fd5b506004361061004c5760003560e01c806306661abd14610051578063158ef93e1461006f5780633fd0445214610091578063aae37221146100ed575b600080fd5b61005961010b565b6040518082815260200191505060405180910390f35b610077610111565b604051808215151515815260200191505060405180910390f35b6100d3600480360360208110156100a757600080fd5b81019080803573ffffffffffffffffffffffffffffffffffffffff169060200190929190505050610123565b604051808215151515815260200191505060405180910390f35b6100f5610143565b6040518082815260200191505060405180910390f35b60015481565b6000809054906101000a900460ff1681565b60036020528060005260406000206000915054906101000a900460ff1681565b6002548156fea165627a7a7230582049937b82112a74b4f1c728015dcfc4a3dbb614e1057b2650db7713b7fdc935330029",
  "source": "pragma solidity ^0.5.1;\n\nimport './LibraryLockDataLayout.sol';\n\ncontract SampleDataLayout is LibraryLockDataLayout {\n\n    event NewContractAddress(address newAddress);\n    \n    \n    uint public count;\n    uint public maxGuests;\n    mapping(address=>bool) public guestBook;\n}",
  "sourcePath": "/Users/mdcoon/SampleProxy/contracts/SampleDataLayout.sol",
  "compiler": {
    "name": "solc",
    "version": "0.5.8+commit.23d335f2.Emscripten.clang"
  },
  "schemaVersion": "3.0.11",
  "updatedAt": "2019-07-21T04:56:26.004Z",
  "devdoc": {
    "methods": {}
  },
  "userdoc": {
    "methods": {}
  }
}