{
  "contractName": "Sample",
  "abi": [
    {
      "constant": true,
      "inputs": [],
      "name": "count",
      "outputs": [
        {
          "name": "",
          "type": "uint256"
        }
      ],
      "payable": false,
      "stateMutability": "view",
      "type": "function"
    },
    {
      "constant": true,
      "inputs": [],
      "name": "initialized",
      "outputs": [
        {
          "name": "",
          "type": "bool"
        }
      ],
      "payable": false,
      "stateMutability": "view",
      "type": "function"
    },
    {
      "constant": true,
      "inputs": [
        {
          "name": "",
          "type": "address"
        }
      ],
      "name": "guestBook",
      "outputs": [
        {
          "name": "",
          "type": "bool"
        }
      ],
      "payable": false,
      "stateMutability": "view",
      "type": "function"
    },
    {
      "constant": true,
      "inputs": [],
      "name": "proxiableUUID",
      "outputs": [
        {
          "name": "",
          "type": "bytes32"
        }
      ],
      "payable": false,
      "stateMutability": "pure",
      "type": "function"
    },
    {
      "constant": true,
      "inputs": [],
      "name": "maxGuests",
      "outputs": [
        {
          "name": "",
          "type": "uint256"
        }
      ],
      "payable": false,
      "stateMutability": "view",
      "type": "function"
    },
    {
      "anonymous": false,
      "inputs": [
        {
          "indexed": false,
          "name": "newAddress",
          "type": "address"
        }
      ],
      "name": "NewContractAddress",
      "type": "event"
    },
    {
      "constant": false,
      "inputs": [
        {
          "name": "max",
          "type": "uint256"
        }
      ],
      "name": "postConstructor",
      "outputs": [],
      "payable": false,
      "stateMutability": "nonpayable",
      "type": "function"
    },
    {
      "constant": false,
      "inputs": [],
      "name": "increment",
      "outputs": [],
      "payable": false,
      "stateMutability": "nonpayable",
      "type": "function"
    },
    {
      "constant": false,
      "inputs": [
        {
          "name": "newAddress",
          "type": "address"
        }
      ],
      "name": "updateCode",
      "outputs": [],
      "payable": false,
      "stateMutability": "nonpayable",
      "type": "function"
    },
    {
      "constant": false,
      "inputs": [],
      "name": "visit",
      "outputs": [],
      "payable": false,
      "stateMutability": "nonpayable",
      "type": "function"
    },
    {
      "constant": false,
      "inputs": [],
      "name": "codeAddress",
      "outputs": [
        {
          "name": "cAddr",
          "type": "address"
        }
      ],
      "payable": false,
      "stateMutability": "nonpayable",
      "type": "function"
    }
  ],
  "bytecode": "0x608060405260008060006101000a81548160ff02191690831515021790555034801561002a57600080fd5b506109968061003a6000396000f3fe608060405234801561001057600080fd5b506004361061009e5760003560e01c806352d1902d1161006657806352d1902d1461018d578063677a3560146101ab57806396d2a856146101f5578063aae3722114610223578063d09de08a146102415761009e565b806306661abd146100a35780630cc4330c146100c1578063158ef93e146100cb5780633fd04452146100ed5780634695195414610149575b600080fd5b6100ab61024b565b6040518082815260200191505060405180910390f35b6100c9610251565b005b6100d36103d6565b604051808215151515815260200191505060405180910390f35b61012f6004803603602081101561010357600080fd5b81019080803573ffffffffffffffffffffffffffffffffffffffff1690602001909291905050506103e8565b604051808215151515815260200191505060405180910390f35b61018b6004803603602081101561015f57600080fd5b81019080803573ffffffffffffffffffffffffffffffffffffffff169060200190929190505050610408565b005b610195610588565b6040518082815260200191505060405180910390f35b6101b36105b3565b604051808273ffffffffffffffffffffffffffffffffffffffff1673ffffffffffffffffffffffffffffffffffffffff16815260200191505060405180910390f35b6102216004803603602081101561020b57600080fd5b8101908080359060200190929190505050610647565b005b61022b6106eb565b6040518082815260200191505060405180910390f35b6102496106f1565b005b60015481565b600115156000809054906101000a900460ff161515146102bc576040517f08c379a00000000000000000000000000000000000000000000000000000000081526004018080602001828103825260328152602001806109396032913960400191505060405180910390fd5b600360003373ffffffffffffffffffffffffffffffffffffffff1673ffffffffffffffffffffffffffffffffffffffff16815260200190815260200160002060009054906101000a900460ff161561037c576040517f08c379a000000000000000000000000000000000000000000000000000000000815260040180806020018281038252600c8152602001807f477565737420657869737473000000000000000000000000000000000000000081525060200191505060405180910390fd5b6001600360003373ffffffffffffffffffffffffffffffffffffffff1673ffffffffffffffffffffffffffffffffffffffff16815260200190815260200160002060006101000a81548160ff021916908315150217905550565b6000809054906101000a900460ff1681565b60036020528060005260406000206000915054906101000a900460ff1681565b600460009054906101000a900473ffffffffffffffffffffffffffffffffffffffff1673ffffffffffffffffffffffffffffffffffffffff163373ffffffffffffffffffffffffffffffffffffffff16146104ae576040517f08c379a000000000000000000000000000000000000000000000000000000000815260040180806020018281038252602c81526020018061090d602c913960400191505060405180910390fd5b600115156000809054906101000a900460ff16151514610519576040517f08c379a00000000000000000000000000000000000000000000000000000000081526004018080602001828103825260328152602001806109396032913960400191505060405180910390fd5b6105228161076e565b7f347df869dd398e5c7c4a228fdfcd621e29beffbb21d815233f9af7114bbea6c381604051808273ffffffffffffffffffffffffffffffffffffffff1673ffffffffffffffffffffffffffffffffffffffff16815260200191505060405180910390a150565b60007fc5f16f0fcc639fa48a6947836d9850f504798523bf8c9a3a87d5876cf622bcf760001b905090565b6000600115156000809054906101000a900460ff16151514610620576040517f08c379a00000000000000000000000000000000000000000000000000000000081526004018080602001828103825260328152602001806109396032913960400191505060405180910390fd5b7fc5f16f0fcc639fa48a6947836d9850f504798523bf8c9a3a87d5876cf622bcf754905090565b6000809054906101000a900460ff161561066057600080fd5b8060028190555061066f6108ac565b610678336108c8565b60006106826105b3565b90507f347df869dd398e5c7c4a228fdfcd621e29beffbb21d815233f9af7114bbea6c381604051808273ffffffffffffffffffffffffffffffffffffffff1673ffffffffffffffffffffffffffffffffffffffff16815260200191505060405180910390a15050565b60025481565b600115156000809054906101000a900460ff1615151461075c576040517f08c379a00000000000000000000000000000000000000000000000000000000081526004018080602001828103825260328152602001806109396032913960400191505060405180910390fd5b60018060008282540192505081905550565b8073ffffffffffffffffffffffffffffffffffffffff166352d1902d6040518163ffffffff1660e01b815260040160206040518083038186803b1580156107b457600080fd5b505afa1580156107c8573d6000803e3d6000fd5b505050506040513d60208110156107de57600080fd5b81019080805190602001909291905050507fc5f16f0fcc639fa48a6947836d9850f504798523bf8c9a3a87d5876cf622bcf760001b14610886576040517f08c379a000000000000000000000000000000000000000000000000000000000815260040180806020018281038252600e8152602001807f4e6f7420636f6d70617469626c6500000000000000000000000000000000000081525060200191505060405180910390fd5b807fc5f16f0fcc639fa48a6947836d9850f504798523bf8c9a3a87d5876cf622bcf75550565b60016000806101000a81548160ff021916908315150217905550565b80600460006101000a81548173ffffffffffffffffffffffffffffffffffffffff021916908373ffffffffffffffffffffffffffffffffffffffff1602179055505056fe4f6e6c79206f776e657220697320616c6c6f77656420746f20706572666f726d207468697320616374696f6e546865206c696272617279206973206c6f636b65642e204e6f20646972656374202763616c6c2720697320616c6c6f776564a165627a7a72305820a4f3b40bc9238b6af52a8cd80d1aba8e76484493355d3f79253f67503e5c016c0029",
  "source": "pragma solidity ^0.5.1;\n\nimport './Proxiable.sol';\nimport './Owned.sol';\nimport './SampleDataLayout.sol';\nimport './LibraryLock.sol';\n\ncontract Sample  is SampleDataLayout, Owned, Proxiable, LibraryLock {\n    function postConstructor(uint256 max) public {\n        require(!initialized);\n        maxGuests = max;\n        initialize();\n        setOwner(msg.sender);\n        address myAddr = codeAddress();\n        emit NewContractAddress(myAddr);\n    }\n\n    function increment() public delegatedOnly {\n        count += 1;\n    }\n\n\n    function updateCode(address newAddress) public onlyOwner delegatedOnly {\n        updateCodeAddress(newAddress);\n        emit NewContractAddress(newAddress);\n    }\n\n    function visit() public delegatedOnly {\n        require(!guestBook[msg.sender], \"Guest exists\");\n        guestBook[msg.sender] = true;\n    }\n\n    function codeAddress() public delegatedOnly returns (address cAddr) {\n        assembly {\n            cAddr := sload(0xc5f16f0fcc639fa48a6947836d9850f504798523bf8c9a3a87d5876cf622bcf7)\n           \n        }\n    }\n}",
  "sourcePath": "/Users/mdcoon/SampleProxy/contracts/Sample.sol",
  "compiler": {
    "name": "solc",
    "version": "0.5.8+commit.23d335f2.Emscripten.clang"
  },
  "schemaVersion": "3.0.11",
  "updatedAt": "2019-07-21T07:51:09.991Z",
  "devdoc": {
    "methods": {}
  },
  "userdoc": {
    "methods": {}
  }
}